S00B00004E74692E73726563EE
S11300000C942A000C94AF080C94D8080C940109A1
S11300100C9447000C9447000C9447000C94470040
S11300200C9447000C9447000C9447000C94470030
S11300300C9447000C9447000C9447000C94470020
S11300400C94E2060C9447000C9447000C9447006F
S11300500C94470011241FBECFE5D8E0DEBFCDBF0E
S113006013E0A0E6B0E0E2EFF2E102C005900D92E9
S1130070A636B107D9F723E0A6E6B3E001C01D9286
S1130080A537B207E1F70E94DD060C9477090C94BA
S113009000009091680380916703953019F491E012
S11300A090937403853019F482E08093740363E1C0
S11300B0809169030E942F0681E00E94210660E07E
S11300C080916A030E942F0681E00E94210680919C
S11300D06100882309F4CBC08FE10E94920881114A
S11300E016C02FEF89EF90E0215080409040E1F757
S11300F000C000008FE10E9492088823D9F3809108
S113010066038F5F833009F482E0809366038EE197
S11301100E949208811117C02FEF89EF90E02150BF
S113012080409040E1F700C000008EE10E949208F8
S11301308823D9F380916603815018F08093660375
S113014002C0109266038DE10E94920881111EC0C4
S11301502FEF89EF90E0215080409040E1F700C0FC
S113016000008DE10E9492088823D9F363E1809115
S113017069030E942F0680E20E9421068091690390
S11301808F5F833009F482E0809369038BE10E94DE
S1130190920881111FC02FEF89EF90E02150804019
S11301A09040E1F700C000008BE10E949208882390
S11301B0D9F363E1809169030E942F0680E20E94D3
S11301C0210680916903815018F08093690302C06D
S11301D01092690360916000809166030E942F066B
S11301E080E30E9421062FEF85EA9EE021508040A3
S11301F09040E1F700C000006091600080916603C8
S11302000E942F0680E20E942106809160008F5F89
S113021080936000823109F0F4C09091660380916C
S11302206903981709F161E086E10E940F082FEF36
S113023085EA9EE0215080409040E1F700C0000034
S113024060E086E10E940F08809168038F5F8093CD
S1130250680363E083E00E942F066091680370E006
S113026080E090E00E9443061092610008958DE1C1
S11302700E949208811116C02FEF89EF90E021505F
S113028080409040E1F700C000008DE10E94920898
S11302908823D9F3809166038F5F833009F482E069
S11302A0809366038BE10E949208811117C02FEF9F
S11302B089EF90E0215080409040E1F700C00000B9
S11302C08BE10E9492088823D9F3809166038150C0
S11302D018F08093660302C0109266038FE10E94B7
S11302E0920881111EC02FEF89EF90E021508040C9
S11302F09040E1F700C000008FE10E94920888233B
S1130300D9F360E080916A030E942F0680E20E9484
S1130310210680916A038F5F833009F482E0809321
S11303206A038EE10E94920881111FC02FEF89EFAA
S113033090E0215080409040E1F700C000008EE141
S11303400E9492088823D9F360E080916A030E9496
S11303502F0680E20E94210680916A03815018F0E2
S113036080936A0302C010926A03609160008091D6
S113037066030E942F0680E30E9421062FEF85EA80
S11303809EE0215080409040E1F700C00000609161
S11303906000809166030E942F0680E20E9421067D
S11303A080916000815080936000813051F590917C
S11303B0660380916A03981709F161E086E10E945F
S11303C00F082FEF85EA9EE0215080409040E1F72E
S11303D000C0000060E086E10E940F08809167037E
S11303E08F5F8093670361E183E00E942F06609131
S11303F0670370E080E090E00E94430681E0809310
S1130400610008950E94FC070E94ED0562E670E019
S113041081E00E94C2066DE770E082E00E94C2069D
S113042065E770E083E00E94C2066DE670E084E058
S11304300C94C20681E00E94210663E080E00E94E1
S11304402F0685EA90E00E94230661E081E00E9485
S11304502F062FEF89E698E1215080409040E1F784
S113046000C0000086EB90E00E94230684E00E9416
S1130470210661E082E00E942F062FEF89E698E1D1
S1130480215080409040E1F700C0000089EC90E0EA
S11304900E94230661E083E00E942F068CED90E029
S11304A00E9423062FEF87EA91E621508040904076
S11304B0E1F700C000000E94170681E080936B03FF
S11304C008958CEE90E00E94230660E081E00E9493
S11304D02F062FEF89E698E1215080409040E1F704
S11304E000C0000081E091E00E94230660E082E009
S11304F00E942F062FEF89E698E12150804090401A
S1130500E1F700C0000081E191E00E94230660E071
S113051083E00E942F0686E291E00E9423062FEFDB
S113052087EA91E6215080409040E1F700C0000046
S11305300E94170688E391E00E94230660E081E0B0
S11305400E942F062FEF89E698E1215080409040C9
S1130550E1F700C000008CE491E00E94230660E013
S113056082E00E942F062FEF89E698E12150804017
S11305709040E1F700C000008DE591E00E94230661
S113058060E083E00E942F0681E791E00E94230649
S11305902FEF87EA91E6215080409040E1F700C0B8
S11305A000000E94170682E080936B030895CF93A6
S11305B0C82F68E081E00E942F068C2F0E9421063C
S11305C08C2F0E9421068C2F0E94210668E083E074
S11305D00E942F068C2F0E9421068C2F0E94210638
S11305E08C2F0E9421062FEF81EE94E02150804051
S11305F09040E1F700C0000068E081E00E942F060F
S113060080E20E94210680E20E94210680E20E948C
S1130610210668E083E00E942F0680E20E94210602
S113062080E20E94210680E20E9421062FEF81EEE3
S113063094E0215080409040E1F700C00000CF9149
S1130640089580916A00813069F482E891E00E9403
S113065023062FEF89E698E1215080409040E1F78E
S113066000C0000081E00E94D70282E00E94D7020D
S113067081E00E94D70283E00E94D70280916A0041
S11306808F5F80936A0066E00E942A09911108C076
S11306900E94170683E080936B0381E080936A00D5
S11306A0089585E991E00E94230660E081E00E94BC
S11306B02F062FEF89E698E1215080409040E1F722
S11306C000C0000087EA91E00E94230660E082E017
S11306D00E942F062FEF89E698E121508040904038
S11306E0E1F700C000008CEB91E00E94230660E07B
S11306F083E00E942F0682ED91E00E9423062FEFF3
S113070087EA91E6215080409040E1F700C0000064
S11307100E94170684E080936B0308958DED91E0A9
S11307200E94230665E083E00E942F062FEF83EDED
S113073090E3215080409040E1F700C00000809198
S11307407403813009F041C082EF91E00E942306D6
S113075084E00E9421062FEF87EA91E62150804031
S11307609040E1F700C000000E9417068CEF91E072
S11307700E94230660E081E00E942F062FEF89E6A5
S113078098E1215080409040E1F700C000008FE0E4
S113079092E00E94230660E082E00E942F062FEF81
S11307A089E698E1215080409040E1F700C00000C4
S11307B084E292E00E94230660E083E00E942F0618
S11307C085E392E00E94230649C0823009F054C0B8
S11307D082ED91E00E94230684E00E9421062FEF1F
S11307E087EA91E6215080409040E1F700C0000084
S11307F00E94170689E492E00E94230660E081E0EB
S11308000E942F062FEF89E698E121508040904006
S1130810E1F700C000008EE592E00E94230660E04C
S113082082E00E942F062FEF89E698E12150804054
S11308309040E1F700C0000082E792E00E942306A6
S113084060E083E00E942F068EE392E00E9423067C
S113085084E00E94210684E00E94210684E00E9434
S113086021062FEF87EA91E6215080409040E1F77E
S113087000C000000E94170686E080936B0310926C
S113088074030895CF9386E892E00E94230660E003
S113089081E00E942F062FEF89E698E121508040E5
S11308A09040E1F700C000008AE992E00E9423062C
S11308B060E082E00E942F062FEF89E698E1215044
S11308C080409040E1F700C000008FEA92E00E946F
S11308D0230660E083E00E942F0682EC92E00E94EF
S11308E023062FEF87EA91E6215080409040E1F7FC
S11308F000C000000E94170688ED92E00E942306C3
S113090060E081E00E942F062FEF89E698E12150F4
S113091080409040E1F700C0000086EE92E00E9423
S1130920230660E082E00E942F062FEF89E698E11B
S1130930215080409040E1F700C000008BEF92E02E
S11309400E94230660E083E00E942F068EE093E07D
S11309500E9423062FEF87EA91E6215080409040C1
S1130960E1F700C000000E94170683E293E00E94B2
S1130970230660E081E00E942F062FEF89E698E1CC
S1130980215080409040E1F700C0000083E393E0F1
S11309900E94230660E082E00E942F062FEF89E682
S11309A098E1215080409040E1F700C0000085E4C8
S11309B093E00E94230666E083E00E942F06C6E0CF
S11309C084E00E9421062FEF80E792E021508040CE
S11309D09040E1F700C00000C15091F72FEF8DE384
S11309E099E4215080409040E1F700C000000E944B
S11309F0170610926B03CF91089580916B038111B8
S1130A0002C00C941A02813011F40C9461028230F9
S1130A1011F40C942103833011F40C9451038430A9
S1130A2069F50E94490080916B0090916C000197D8
S1130A3041F460E083E00E942F0684E593E00E9485
S1130A40230680916B0090916C00019690936C004A
S1130A5080936B00809174038823C1F00E94170671
S1130A6085E080936B0381E090E090936C00809329
S1130A706B0010926803109267030895853011F497
S1130A800C948E03863011F40C9442040895CF9391
S1130A90C82F60E083E00E940F08C4FB662760F95A
S1130AA088E00E940F08C5FB662760F989E00E9470
S1130AB00F08C6FB662760F98AE00E940F086C2FB6
S1130AC0661F6627661F8CE00E940F0861E082E0C3
S1130AD00E940F088FE99FE00197F1F700C0000022
S1130AE060E082E00E940F086C2F617088E00E9431
S1130AF00F08C1FB662760F989E00E940F08C2FB5A
S1130B00662760F98AE00E940F08C3FB662760F934
S1130B108CE00E940F0861E082E00E940F088FE9D8
S1130B209FE00197F1F700C0000060E082E0CF9100
S1130B300C940F08CF93C82F61E083E00E940F0844
S1130B40C4FB662760F988E00E940F08C5FB66278E
S1130B5060F989E00E940F08C6FB662760F98AE005
S1130B600E940F086C2F661F6627661F8CE00E9488
S1130B700F0861E082E00E940F088FE99FE001976F
S1130B80F1F700C0000060E082E00E940F086C2FC3
S1130B90617088E00E940F08C1FB662760F989E054
S1130BA00E940F08C2FB662760F98AE00E940F08C2
S1130BB0C3FB662760F98CE00E940F0861E082E0C5
S1130BC00E940F088FE99FE00197F1F700C0000031
S1130BD060E082E0CF910C940F082FEF80E792E061
S1130BE0215080409040E1F700C0000082E00E9464
S1130BF0470588E20E9447058FE99FE00197F1F7D6
S1130C0000C000008CE00E9447058FE99FE0019737
S1130C10F1F700C0000081E00E9447058FE39FE1E7
S1130C200197F1F700C0000086E00C94470581E0CD
S1130C300E9447058FE39FE10197F1F700C0000090
S1130C4008950C949A05CF93DF93EC01899188233E
S1130C5019F00E949A05FACFDF91CF910895982F49
S1130C60862F911102C080580BC0913011F480542A
S1130C7007C0923011F48C5603C0933019F48C528F
S1130C800C94470508954F925F926F927F92AF92B2
S1130C90BF92CF92DF92EF92FF921F93CF93DF9395
S1130CA0CDB7DEB7A0970FB6F894DEBF0FBECDBFA9
S1130CB06B017C0197FF12C08DE20E949A05F094AB
S1130CC0E094D094C094C11CD11CE11CF11C80E0C0
S1130CD02AE0422E512C612C712C09C0672B682B01
S1130CE0692BA9F780E30E949A0510E01CC011E06B
S1130CF0180FAA24A394B12CAC0EBD1EA80EB11CCF
S1130D0087FDBA94C701B601A30192010E94580954
S1130D10605DF501608369017A01812FC114D104FA
S1130D20E104F10421F7E1E0F0E0EC0FFD1FE10F35
S1130D30F11D17FDFA951082FF24FA94F10EF7FCC9
S1130D400DC0E1E0F0E0EC0FFD1FEF0DF11DF7FC2D
S1130D50FA9580810E949A05FA94F1CFA0960FB675
S1130D60F894DEBF0FBECDBFDF91CF911F91FF90EE
S1130D70EF90DF90CF90BF90AF907F906F905F9097
S1130D804F9008950F931F93CF93DF938B01880F98
S1130D90880F880F805C0E944705E801085F1F4F99
S1130DA089910E949A05C017D107D1F780E8DF9195
S1130DB0CF911F910F910C9447050E9402020E944B
S1130DC0FD04FDCF1F920F920FB60F9211242F93A3
S1130DD03F934F935F936F937F938F939F93AF93BF
S1130DE0BF93EF93FF93E0916C03F0916D03309701
S1130DF009F00995FF91EF91BF91AF919F918F9168
S1130E007F916F915F914F913F912F910F900FBE02
S1130E100F901F901895982F969596959695877094
S1130E20613009F49AC008F44BC0623009F0E3C0A1
S1130E309130B1F028F0923019F1933089F108958E
S1130E404AB321E030E0B90102C0660F771F8A95EA
S1130E50E2F7CB01942F982B9ABB9BB3809547C0A4
S1130E6047B321E030E0B90102C0660F771F8A95CD
S1130E70E2F7CB01942F982B97BB98B3809549C088
S1130E8044B321E030E0B90102C0660F771F8A95B0
S1130E90E2F7CB01942F982B94BB95B380954AC06D
S1130EA041B321E030E0B90102C0660F771F8A9593
S1130EB0E2F7CB01942F982B91BB92B380954BC052
S1130EC09130C1F028F0923031F19330A9F10895B6
S1130ED04AB321E030E0B90102C0660F771F8A955A
S1130EE0E2F7CB018095942F98239ABB9BB3892377
S1130EF08BBB089547B321E030E0B90102C0660F0F
S1130F00771F8A95E2F7CB018095942F982397BB9E
S1130F1098B389234BC044B321E030E0B90102C047
S1130F20660F771F8A95E2F7CB018095942F98235B
S1130F3094BB95B389234CC041B321E030E0B9019F
S1130F4002C0660F771F8A95E2F7CB018095942F34
S1130F50982391BB92B389234DC09130B9F028F006
S1130F60923031F19330B1F108954AB321E030E089
S1130F70B90102C0660F771F8A95E2F7CB01962F5D
S1130F80909594239ABB9BB3892BB2CF47B321E0AE
S1130F9030E0B90102C0660F771F8A95E2F7CB01F2
S1130FA0962F9095942397BB98B3892B88BB08956B
S1130FB044B321E030E0B90102C0660F771F8A957F
S1130FC0E2F7CB01962F9095942394BB95B3892B8C
S1130FD085BB089541B321E030E0B90102C0660F3A
S1130FE0771F8A95E2F7CB01962F9095942391BBB6
S1130FF092B3892B82BB08950F931F93CF9305E877
S113100010E0C0E0F80161918F018C2F0E940B0762
S1131010CF5FC032B9F7CF911F910F910895982FE8
S11310209695969596958770662319F06130F1F13F
S11310300895913099F028F09230E9F0933041F11D
S113104008954BB321E030E0B90102C0660F771F69
S11310508A95E2F7CB01809584233BC048B321E015
S113106030E0B90102C0660F771F8A95E2F7CB0121
S1131070809584233BC045B321E030E0B90102C030
S1131080660F771F8A95E2F7CB01809584233BC0D6
S113109042B321E030E0B90102C0660F771F8A95A0
S11310A0E2F7CB018095842382BB0895913099F0B7
S11310B028F09230E9F0933041F108954BB321E0E8
S11310C030E0B90102C0660F771F8A95E2F7CB01C1
S11310D0842B8BBB089548B321E030E0B90102C0F2
S11310E0660F771F8A95E2F7CB01842B88BB08959E
S11310F045B321E030E0B90102C0660F771F8A953D
S1131100E2F7CB01842B85BB089542B321E030E0A4
S1131110B90102C0660F771F8A95E2F7CB01842BD1
S113112082BB0895282F27708695869586958130F1
S113113049F030F0823041F0833079F480B305C057
S113114089B303C086B301C083B390E002C0959510
S113115087952A95E2F7982F9170892F08951F9209
S11311600F920FB60F9211242F933F934F935F93D7
S11311706F937F938F939F93AF93BF93EF93FF935B
S1131180E0917203F0917303309709F00995FF9190
S1131190EF91BF91AF919F918F917F916F915F91EB
S11311A04F913F912F910F900FBE0F901F90189564
S11311B01F920F920FB60F9211242F933F934F93C8
S11311C05F936F937F938F939F93AF93BF93EF93AB
S11311D0FF93E0917003F0917103309709F0099542
S11311E0FF91EF91BF91AF919F918F917F916F91FB
S11311F05F914F913F912F910F900FBE0F901F90D1
S113120018951F920F920FB60F9211242F933F93AC
S11312104F935F936F937F938F939F93AF93BF93FA
S1131220EF93FF93E0916E03F0916F03309709F011
S11312300995FF91EF91BF91AF919F918F917F910C
S11312406F915F914F913F912F910F900FBE0F902F
S11312501F901895991B79E004C0991F961708F000
S1131260961B881F7A95C9F780950895A1E21A2ED6
S1131270AA1BBB1BFD010DC0AA1FBB1FEE1FFF1F36
S1131280A217B307E407F50720F0A21BB30BE40B86
S1131290F50B661F771F881F991F1A9469F76095CD
S11312A07095809590959B01AC01BD01CF01089587
S11312B0052E97FB1EF400940E946F0957FD07D07A
S11312C00E94360907FC03D04EF40C946F09509524
S11312D04095309521953F4F4F4F5F4F089590951E
S11312E08095709561957F4F8F4F9F4F0895F89427
S10512F0FFCF2A
S11312F20101040A040E15040A0A01010000001B7C
S11313021F1F0E0400040A050E14040E11040A140D
S11313120E05040E1100000202020202020202027F
S11313220202020202010202020202020202020199
S113133201020101012020202048656C6C6F2120EC
S1131342202020202000546869732069732048619A
S11313526D6F6B7368612E200049276C6C20746179
S11313626C6B207769746820796F750061626F75A0
S113137274206D792053746F72792E0041667465FE
S113138272206D792067726164756174696F6E2071
S11313920066726F6D20666163756C7479206F6686
S11313A200456E67696E656572696E67206964657A
S11313B2636964656400746F206861766520736F85
S11313C26D652066756E2E00736F2069206D6164F1
S11313D265206120706172747920200077697468D5
S11313E2206D7920667269656E6473200063656C92
S11313F26562726174696E672074686520656E64E3
S1131402006F662074686973206A6F75726E6579FD
S11314122E00202048616D6F6B7368612773205022
S1131422617274790041667465722074686973200C
S11314326772656174200070617274792069207723
S1131442656E7420746F20706C61790070616465DC
S11314526C2077697468206D7920667269656E64A0
S1131462200037617A616C326F6F6D2000546865B9
S11314722077696E6E6572206973202E2E2E2E2EB1
S11314822E0048616D6F6B7368612000692077617B
S113149273207665727920676C616420746F0077BB
S11314A2696E207468652067616D65206265747772
S11314B265656E006D6520616E642037617A616CCA
S11314C2326F6F6D006974207761732061206E69D9
S11314D263652067616D652E00616C74686F756762
S11314E2682069206C6F7374207468697300676183
S11314F26D65206265747765656E206D6520616E29
S1131502640037617A616C326F6F6D2C20697420CC
S11315127761732061004166746572207370656E31
S113152264696E672073756368006772656174200D
S113153274696D652C20692077616E74656400742A
S11315426F206A6F696E204E54492C20736F206994
S11315522000776F726B656420766572792068610A
S1131562726420746F2020002062652073656C65AC
S1131572637465642E00416E642068657265206937
S1131582276D2074616C6B696E67007769746820DB
S1131592796F752066726F6D204E5449200074680D
S11315A2726F756768206D79203173742070726F61
S11315B26A2E005468616E6B7320666F7220796FB5
S11315C275720074696D652069206170707265635B
S11315D26961746500796F757220696E74657265EC
S11315E273742E0070313A202020202020202020E5
S10915F22070323A0000F3
S9030000FC
